{
  "contractName": "ERC721Vehicle",
  "abi": [
    {
      "constant": true,
      "inputs": [
        {
          "name": "_interfaceId",
          "type": "bytes4"
        }
      ],
      "name": "supportsInterface",
      "outputs": [
        {
          "name": "",
          "type": "bool"
        }
      ],
      "payable": false,
      "stateMutability": "view",
      "type": "function"
    },
    {
      "constant": true,
      "inputs": [],
      "name": "creator",
      "outputs": [
        {
          "name": "",
          "type": "address"
        }
      ],
      "payable": false,
      "stateMutability": "view",
      "type": "function"
    },
    {
      "constant": true,
      "inputs": [],
      "name": "name",
      "outputs": [
        {
          "name": "",
          "type": "string"
        }
      ],
      "payable": false,
      "stateMutability": "view",
      "type": "function"
    },
    {
      "constant": true,
      "inputs": [
        {
          "name": "_tokenId",
          "type": "uint256"
        }
      ],
      "name": "getApproved",
      "outputs": [
        {
          "name": "",
          "type": "address"
        }
      ],
      "payable": false,
      "stateMutability": "view",
      "type": "function"
    },
    {
      "constant": false,
      "inputs": [
        {
          "name": "_to",
          "type": "address"
        },
        {
          "name": "_tokenId",
          "type": "uint256"
        }
      ],
      "name": "approve",
      "outputs": [],
      "payable": false,
      "stateMutability": "nonpayable",
      "type": "function"
    },
    {
      "constant": true,
      "inputs": [],
      "name": "totalSupply",
      "outputs": [
        {
          "name": "",
          "type": "uint256"
        }
      ],
      "payable": false,
      "stateMutability": "view",
      "type": "function"
    },
    {
      "constant": true,
      "inputs": [],
      "name": "InterfaceId_ERC165",
      "outputs": [
        {
          "name": "",
          "type": "bytes4"
        }
      ],
      "payable": false,
      "stateMutability": "view",
      "type": "function"
    },
    {
      "constant": true,
      "inputs": [
        {
          "name": "_owner",
          "type": "address"
        },
        {
          "name": "_index",
          "type": "uint256"
        }
      ],
      "name": "tokenOfOwnerByIndex",
      "outputs": [
        {
          "name": "",
          "type": "uint256"
        }
      ],
      "payable": false,
      "stateMutability": "view",
      "type": "function"
    },
    {
      "constant": true,
      "inputs": [
        {
          "name": "_index",
          "type": "uint256"
        }
      ],
      "name": "tokenByIndex",
      "outputs": [
        {
          "name": "",
          "type": "uint256"
        }
      ],
      "payable": false,
      "stateMutability": "view",
      "type": "function"
    },
    {
      "constant": true,
      "inputs": [
        {
          "name": "_tokenId",
          "type": "uint256"
        }
      ],
      "name": "ownerOf",
      "outputs": [
        {
          "name": "",
          "type": "address"
        }
      ],
      "payable": false,
      "stateMutability": "view",
      "type": "function"
    },
    {
      "constant": true,
      "inputs": [
        {
          "name": "_owner",
          "type": "address"
        }
      ],
      "name": "balanceOf",
      "outputs": [
        {
          "name": "",
          "type": "uint256"
        }
      ],
      "payable": false,
      "stateMutability": "view",
      "type": "function"
    },
    {
      "constant": true,
      "inputs": [],
      "name": "symbol",
      "outputs": [
        {
          "name": "",
          "type": "string"
        }
      ],
      "payable": false,
      "stateMutability": "view",
      "type": "function"
    },
    {
      "constant": false,
      "inputs": [
        {
          "name": "_to",
          "type": "address"
        },
        {
          "name": "_approved",
          "type": "bool"
        }
      ],
      "name": "setApprovalForAll",
      "outputs": [],
      "payable": false,
      "stateMutability": "nonpayable",
      "type": "function"
    },
    {
      "constant": true,
      "inputs": [
        {
          "name": "_tokenId",
          "type": "uint256"
        }
      ],
      "name": "tokenURI",
      "outputs": [
        {
          "name": "",
          "type": "string"
        }
      ],
      "payable": false,
      "stateMutability": "view",
      "type": "function"
    },
    {
      "constant": true,
      "inputs": [
        {
          "name": "_owner",
          "type": "address"
        },
        {
          "name": "_operator",
          "type": "address"
        }
      ],
      "name": "isApprovedForAll",
      "outputs": [
        {
          "name": "",
          "type": "bool"
        }
      ],
      "payable": false,
      "stateMutability": "view",
      "type": "function"
    },
    {
      "inputs": [],
      "payable": false,
      "stateMutability": "nonpayable",
      "type": "constructor"
    },
    {
      "payable": true,
      "stateMutability": "payable",
      "type": "fallback"
    },
    {
      "anonymous": false,
      "inputs": [
        {
          "indexed": true,
          "name": "tokenId",
          "type": "uint256"
        }
      ],
      "name": "EventNewVehicleToken",
      "type": "event"
    },
    {
      "anonymous": false,
      "inputs": [
        {
          "indexed": true,
          "name": "tokenId",
          "type": "uint256"
        }
      ],
      "name": "EventNewLogEntry",
      "type": "event"
    },
    {
      "anonymous": false,
      "inputs": [
        {
          "indexed": true,
          "name": "tokenId",
          "type": "uint256"
        }
      ],
      "name": "EventForSale",
      "type": "event"
    },
    {
      "anonymous": false,
      "inputs": [
        {
          "indexed": true,
          "name": "tokenId",
          "type": "uint256"
        }
      ],
      "name": "EventSold",
      "type": "event"
    },
    {
      "anonymous": false,
      "inputs": [
        {
          "indexed": true,
          "name": "tokenId",
          "type": "uint256"
        }
      ],
      "name": "EventReceived",
      "type": "event"
    },
    {
      "anonymous": false,
      "inputs": [
        {
          "indexed": true,
          "name": "tokenId",
          "type": "uint256"
        }
      ],
      "name": "EventVehicleBurnt",
      "type": "event"
    },
    {
      "anonymous": false,
      "inputs": [
        {
          "indexed": false,
          "name": "sender",
          "type": "address"
        },
        {
          "indexed": false,
          "name": "value",
          "type": "uint256"
        }
      ],
      "name": "EventDepositReceived",
      "type": "event"
    },
    {
      "anonymous": false,
      "inputs": [
        {
          "indexed": true,
          "name": "_from",
          "type": "address"
        },
        {
          "indexed": true,
          "name": "_to",
          "type": "address"
        },
        {
          "indexed": true,
          "name": "_tokenId",
          "type": "uint256"
        }
      ],
      "name": "Transfer",
      "type": "event"
    },
    {
      "anonymous": false,
      "inputs": [
        {
          "indexed": true,
          "name": "_owner",
          "type": "address"
        },
        {
          "indexed": true,
          "name": "_approved",
          "type": "address"
        },
        {
          "indexed": true,
          "name": "_tokenId",
          "type": "uint256"
        }
      ],
      "name": "Approval",
      "type": "event"
    },
    {
      "anonymous": false,
      "inputs": [
        {
          "indexed": true,
          "name": "_owner",
          "type": "address"
        },
        {
          "indexed": true,
          "name": "_operator",
          "type": "address"
        },
        {
          "indexed": false,
          "name": "_approved",
          "type": "bool"
        }
      ],
      "name": "ApprovalForAll",
      "type": "event"
    },
    {
      "constant": false,
      "inputs": [
        {
          "name": "x",
          "type": "uint256"
        }
      ],
      "name": "set",
      "outputs": [],
      "payable": false,
      "stateMutability": "nonpayable",
      "type": "function"
    },
    {
      "constant": true,
      "inputs": [],
      "name": "get",
      "outputs": [
        {
          "name": "",
          "type": "uint256"
        }
      ],
      "payable": false,
      "stateMutability": "view",
      "type": "function"
    },
    {
      "constant": false,
      "inputs": [],
      "name": "setContractActive",
      "outputs": [],
      "payable": false,
      "stateMutability": "nonpayable",
      "type": "function"
    },
    {
      "constant": false,
      "inputs": [],
      "name": "setContractInactive",
      "outputs": [],
      "payable": false,
      "stateMutability": "nonpayable",
      "type": "function"
    },
    {
      "constant": true,
      "inputs": [
        {
          "name": "_tokenId",
          "type": "uint256"
        }
      ],
      "name": "isValidToken",
      "outputs": [
        {
          "name": "_valid",
          "type": "bool"
        }
      ],
      "payable": false,
      "stateMutability": "view",
      "type": "function"
    },
    {
      "constant": false,
      "inputs": [
        {
          "name": "_tokenId",
          "type": "uint256"
        },
        {
          "name": "_milage",
          "type": "uint256"
        },
        {
          "name": "_description",
          "type": "string"
        },
        {
          "name": "_documentURI",
          "type": "string"
        }
      ],
      "name": "appendLogEntry",
      "outputs": [
        {
          "name": "length",
          "type": "uint256"
        }
      ],
      "payable": false,
      "stateMutability": "nonpayable",
      "type": "function"
    },
    {
      "constant": true,
      "inputs": [
        {
          "name": "_tokenId",
          "type": "uint256"
        }
      ],
      "name": "getLogEntryCount",
      "outputs": [
        {
          "name": "length",
          "type": "uint256"
        }
      ],
      "payable": false,
      "stateMutability": "view",
      "type": "function"
    },
    {
      "constant": true,
      "inputs": [
        {
          "name": "_tokenId",
          "type": "uint256"
        },
        {
          "name": "_index",
          "type": "uint256"
        }
      ],
      "name": "getLogEntryAtIndex",
      "outputs": [
        {
          "name": "_auditor",
          "type": "address"
        },
        {
          "name": "_milage",
          "type": "uint256"
        },
        {
          "name": "_description",
          "type": "string"
        },
        {
          "name": "_documentURI",
          "type": "string"
        }
      ],
      "payable": false,
      "stateMutability": "view",
      "type": "function"
    },
    {
      "constant": true,
      "inputs": [
        {
          "name": "_tokenId",
          "type": "uint256"
        }
      ],
      "name": "getLogEntryLast",
      "outputs": [
        {
          "name": "_auditor",
          "type": "address"
        },
        {
          "name": "_milage",
          "type": "uint256"
        },
        {
          "name": "_description",
          "type": "string"
        },
        {
          "name": "_documentURI",
          "type": "string"
        }
      ],
      "payable": false,
      "stateMutability": "view",
      "type": "function"
    },
    {
      "constant": false,
      "inputs": [
        {
          "name": "_model",
          "type": "string"
        },
        {
          "name": "_vin",
          "type": "string"
        },
        {
          "name": "_ein",
          "type": "string"
        }
      ],
      "name": "mintNewVehicleToken",
      "outputs": [
        {
          "name": "",
          "type": "uint256"
        }
      ],
      "payable": false,
      "stateMutability": "nonpayable",
      "type": "function"
    },
    {
      "constant": true,
      "inputs": [],
      "name": "getLastSerial",
      "outputs": [
        {
          "name": "",
          "type": "uint256"
        }
      ],
      "payable": false,
      "stateMutability": "view",
      "type": "function"
    },
    {
      "constant": true,
      "inputs": [
        {
          "name": "_tokenId",
          "type": "uint256"
        }
      ],
      "name": "getVehicleData",
      "outputs": [
        {
          "name": "model",
          "type": "string"
        },
        {
          "name": "vin",
          "type": "string"
        },
        {
          "name": "ein",
          "type": "string"
        }
      ],
      "payable": false,
      "stateMutability": "view",
      "type": "function"
    },
    {
      "constant": true,
      "inputs": [
        {
          "name": "_tokenId",
          "type": "uint256"
        }
      ],
      "name": "getVehicleData_Struct",
      "outputs": [
        {
          "components": [
            {
              "name": "model",
              "type": "string"
            },
            {
              "name": "vin",
              "type": "string"
            },
            {
              "name": "ein",
              "type": "string"
            }
          ],
          "name": "",
          "type": "tuple"
        }
      ],
      "payable": false,
      "stateMutability": "view",
      "type": "function"
    },
    {
      "constant": true,
      "inputs": [
        {
          "name": "_tokenId",
          "type": "uint256"
        },
        {
          "name": "_index",
          "type": "uint256"
        }
      ],
      "name": "getLogAtIndex_Struct",
      "outputs": [
        {
          "components": [
            {
              "name": "auditor",
              "type": "address"
            },
            {
              "name": "milage",
              "type": "uint256"
            },
            {
              "name": "description",
              "type": "string"
            },
            {
              "name": "documentURI",
              "type": "string"
            }
          ],
          "name": "",
          "type": "tuple"
        }
      ],
      "payable": false,
      "stateMutability": "view",
      "type": "function"
    },
    {
      "constant": true,
      "inputs": [
        {
          "name": "_tokenId",
          "type": "uint256"
        }
      ],
      "name": "getLogLast_Struct",
      "outputs": [
        {
          "components": [
            {
              "name": "auditor",
              "type": "address"
            },
            {
              "name": "milage",
              "type": "uint256"
            },
            {
              "name": "description",
              "type": "string"
            },
            {
              "name": "documentURI",
              "type": "string"
            }
          ],
          "name": "",
          "type": "tuple"
        }
      ],
      "payable": false,
      "stateMutability": "view",
      "type": "function"
    },
    {
      "constant": false,
      "inputs": [
        {
          "name": "_from",
          "type": "address"
        },
        {
          "name": "_to",
          "type": "address"
        },
        {
          "name": "_tokenId",
          "type": "uint256"
        }
      ],
      "name": "transferFrom",
      "outputs": [],
      "payable": false,
      "stateMutability": "nonpayable",
      "type": "function"
    },
    {
      "constant": false,
      "inputs": [
        {
          "name": "_from",
          "type": "address"
        },
        {
          "name": "_to",
          "type": "address"
        },
        {
          "name": "_tokenId",
          "type": "uint256"
        },
        {
          "name": "_data",
          "type": "bytes"
        }
      ],
      "name": "safeTransferFrom",
      "outputs": [],
      "payable": false,
      "stateMutability": "nonpayable",
      "type": "function"
    },
    {
      "constant": false,
      "inputs": [
        {
          "name": "_from",
          "type": "address"
        },
        {
          "name": "_to",
          "type": "address"
        },
        {
          "name": "_tokenId",
          "type": "uint256"
        }
      ],
      "name": "safeTransferFrom",
      "outputs": [],
      "payable": false,
      "stateMutability": "nonpayable",
      "type": "function"
    },
    {
      "constant": false,
      "inputs": [],
      "name": "kill",
      "outputs": [],
      "payable": false,
      "stateMutability": "nonpayable",
      "type": "function"
    }
  ],
  "bytecode": "0x6080604052600d805460a060020a60ff02191690556000600e553480156200002657600080fd5b50604080518082018252600781527f506f7273636865000000000000000000000000000000000000000000000000006020808301919091528251808401909352600383527f504f5200000000000000000000000000000000000000000000000000000000009083015290620000c47f01ffc9a700000000000000000000000000000000000000000000000000000000640100000000620001a6810204565b620000f87f80ac58cd00000000000000000000000000000000000000000000000000000000640100000000620001a6810204565b81516200010d90600590602085019062000213565b5080516200012390600690602084019062000213565b50620001587f780e9d6300000000000000000000000000000000000000000000000000000000640100000000620001a6810204565b6200018c7f5b5e139f00000000000000000000000000000000000000000000000000000000640100000000620001a6810204565b5050600d8054600160a060020a03191633179055620002b8565b7fffffffff000000000000000000000000000000000000000000000000000000008082161415620001d657600080fd5b7fffffffff00000000000000000000000000000000000000000000000000000000166000908152602081905260409020805460ff19166001179055565b828054600181600116156101000203166002900490600052602060002090601f016020900481019282601f106200025657805160ff191683800117855562000286565b8280016001018555821562000286579182015b828111156200028657825182559160200191906001019062000269565b506200029492915062000298565b5090565b620002b591905b808211156200029457600081556001016200029f565b90565b6129d680620002c86000396000f3006080604052600436106101aa5763ffffffff7c0100000000000000000000000000000000000000000000000000000000600035041662176a6b811461020d57806301ffc9a71461024357806302d05d3f1461027057806306fdde0314610292578063081812fc146102b4578063095ea7b3146102d45780630d487c7d146102f45780630ea17d271461032157806318160ddd1461035157806319fa8f501461036657806323b872dd146103885780632f745c59146103a857806330cfb0a9146103c857806341c0e1b5146103e857806342842e0e146103fd5780634f6ccce71461041d57806352324b281461043d578063554f4c061461045d578063569a995f1461047257806360fe47b1146104875780636352211e146104a757806365edeb91146104c75780636d4ce63c146104e757806370a08231146104fc5780637c8040211461051c57806383d31a0014610531578063860fc78b1461055157806395d89b4114610571578063a22cb46514610586578063b88d4fde146105a6578063c87b56dd146105c6578063c8920eb1146105e6578063ccb6db4a14610615578063e985e9c514610642575b600d5460a060020a900460ff16156101e05760405160e560020a62461bcd0281526004016101d790612864565b60405180910390fd5b36156102015760405160e560020a62461bcd0281526004016101d790612884565b61020b3334610662565b005b34801561021957600080fd5b5061022d610228366004612429565b61069f565b60405161023a91906128c6565b60405180910390f35b34801561024f57600080fd5b5061026361025e366004612326565b610880565b60405161023a91906127ee565b34801561027c57600080fd5b506102856108b4565b60405161023a9190612740565b34801561029e57600080fd5b506102a76108c3565b60405161023a919061280a565b3480156102c057600080fd5b506102856102cf3660046123ec565b61095a565b3480156102e057600080fd5b5061020b6102ef3660046122f6565b610975565b34801561030057600080fd5b5061031461030f3660046123ec565b610a2b565b60405161023a91906128a4565b34801561032d57600080fd5b5061034161033c36600461240a565b610a7a565b60405161023a94939291906127ad565b34801561035d57600080fd5b5061022d610d46565b34801561037257600080fd5b5061037b610d4c565b60405161023a91906127fc565b34801561039457600080fd5b5061020b6103a3366004612200565b610d70565b3480156103b457600080fd5b5061022d6103c33660046122f6565b610e12565b3480156103d457600080fd5b5061022d6103e3366004612362565b610e60565b3480156103f457600080fd5b5061020b61103d565b34801561040957600080fd5b5061020b610418366004612200565b611060565b34801561042957600080fd5b5061022d6104383660046123ec565b61108f565b34801561044957600080fd5b5061022d6104583660046123ec565b6110c4565b34801561046957600080fd5b5061022d611105565b34801561047e57600080fd5b5061020b61110b565b34801561049357600080fd5b5061020b6104a23660046123ec565b611142565b3480156104b357600080fd5b506102856104c23660046123ec565b611147565b3480156104d357600080fd5b506103146104e236600461240a565b61116b565b3480156104f357600080fd5b5061022d6113b3565b34801561050857600080fd5b5061022d6105173660046121a8565b6113b9565b34801561052857600080fd5b5061020b6113ec565b34801561053d57600080fd5b5061034161054c3660046123ec565b611429565b34801561055d57600080fd5b5061026361056c3660046123ec565b61147f565b34801561057d57600080fd5b506102a76114a9565b34801561059257600080fd5b5061020b6105a13660046122c6565b61150a565b3480156105b257600080fd5b5061020b6105c136600461224d565b61158f565b3480156105d257600080fd5b506102a76105e13660046123ec565b6115ca565b3480156105f257600080fd5b506106066106013660046123ec565b61167f565b60405161023a9392919061281b565b34801561062157600080fd5b506106356106303660046123ec565b61187e565b60405161023a91906128b5565b34801561064e57600080fd5b5061026361065d3660046121c6565b611a94565b7f3068f985c8cdd1a541d69939fa1c5c69656d14846e4780b4276eac499184224a8282604051610693929190612792565b60405180910390a15050565b6000846106ab8161147f565b15156106cc5760405160e560020a62461bcd0281526004016101d790612874565b6106d586611147565b600160a060020a031633600160a060020a031614806106fe5750600d54600160a060020a031633145b80610722575061070d8661095a565b600160a060020a031633600160a060020a0316145b151561072d57600080fd5b60008681526010602052604081205411156107965760008681526010602052604090208054600019810190811061076057fe5b90600052602060002090600402016001015485101515156107965760405160e560020a62461bcd0281526004016101d790612854565b60405186907f7ca32bfd4ea989cb0eb460649210f68778ebf5af8d0dbeb50e9379adb48acfd990600090a2600086815260106020908152604080832081516080810183523381528084018a81529281018981526060820189905282546001808201808655948852968690208351600490920201805473ffffffffffffffffffffffffffffffffffffffff1916600160a060020a03909216919091178155935195840195909555935180519194936108559260028501929091019061200c565b506060820151805161087191600384019160209091019061200c565b50505091505b50949350505050565b7bffffffffffffffffffffffffffffffffffffffffffffffffffffffff191660009081526020819052604090205460ff1690565b600d54600160a060020a031681565b60058054604080516020601f600260001961010060018816150201909516949094049384018190048102820181019092528281526060939092909183018282801561094f5780601f106109245761010080835404028352916020019161094f565b820191906000526020600020905b81548152906001019060200180831161093257829003601f168201915b505050505090505b90565b600090815260026020526040902054600160a060020a031690565b600061098082611147565b9050600160a060020a03838116908216141561099b57600080fd5b33600160a060020a03821614806109b757506109b78133611a94565b15156109c257600080fd5b600082815260026020526040808220805473ffffffffffffffffffffffffffffffffffffffff1916600160a060020a0387811691821790925591518593918516917f8c5be1e5ebec7d5bd14f71427d1e84f3dd0314c0f7b2291e5b200ac8c7c3b92591a4505050565b610a3361208a565b81610a3d8161147f565b1515610a5e5760405160e560020a62461bcd0281526004016101d790612874565b610a73836001610a6d866110c4565b0361116b565b9392505050565b60008060608085610a8a8161147f565b1515610aab5760405160e560020a62461bcd0281526004016101d790612874565b600087815260106020908152604091829020548251606081018452602181527f4552524f523a205468697320656e74727920646f6573206e6f74206578697374928101929092527f2e0000000000000000000000000000000000000000000000000000000000000092820192909252908710610b3d5760405160e560020a62461bcd0281526004016101d7919061280a565b506000878152601060205260409020805487908110610b5857fe5b60009182526020808320600490920290910154898352601090915260409091208054600160a060020a039092169188908110610b9057fe5b906000526020600020906004020160010154601060008a815260200190815260200160002060000188815481101515610bc557fe5b9060005260206000209060040201600201601060008b815260200190815260200160002060000189815481101515610bf957fe5b9060005260206000209060040201600301818054600181600116156101000203166002900480601f016020809104026020016040519081016040528092919081815260200182805460018160011615610100020316600290048015610c9f5780601f10610c7457610100808354040283529160200191610c9f565b820191906000526020600020905b815481529060010190602001808311610c8257829003601f168201915b5050845460408051602060026001851615610100026000190190941693909304601f810184900484028201840190925281815295975086945092508401905082828015610d2d5780601f10610d0257610100808354040283529160200191610d2d565b820191906000526020600020905b815481529060010190602001808311610d1057829003601f168201915b5050505050905094509450945094505092959194509250565b60095490565b7f01ffc9a70000000000000000000000000000000000000000000000000000000081565b600d5460a060020a900460ff161515610e0d57610d8d3382611ac2565b1515610d9857600080fd5b600160a060020a0382161515610dad57600080fd5b610db78382611b21565b610dc18382611b92565b610dcb8282611c99565b8082600160a060020a031684600160a060020a03167fddf252ad1be2c89b69c2b068fc378daa952ba7f163c4a11628f55a4df523b3ef60405160405180910390a45b505050565b6000610e1d836113b9565b8210610e2857600080fd5b600160a060020a0383166000908152600760205260409020805483908110610e4c57fe5b906000526020600020015490505b92915050565b60408051606081018252603b81527f6d6178203331206c6f772d6c6576656c206279746573206f662074686520555460208201527f462d3820726570726573656e746174696f6e2065786365656465640000000000918101919091528351600091908190601f1015610ee85760405160e560020a62461bcd0281526004016101d7919061280a565b5083518190601f1015610f115760405160e560020a62461bcd0281526004016101d7919061280a565b5082518190601f1015610f3a5760405160e560020a62461bcd0281526004016101d7919061280a565b50600d54600160a060020a03163314610f685760405160e560020a62461bcd0281526004016101d790612894565b600e805460010190819055600d54610f8b91600160a060020a0390911690611ce2565b604080516060810182528681526020808201879052818301869052600e546000908152600f8252929092208151805192939192610fcb928492019061200c565b506020828101518051610fe4926001850192019061200c565b506040820151805161100091600284019160209091019061200c565b5050600e546040519091507fd0070e461b8d3cd6c960dd23254c39fefba639194cd8ea337d4bc9ea845dc27190600090a25050600e549392505050565b600d54600160a060020a031633141561105e57600d54600160a060020a0316ff5b565b600d5460a060020a900460ff161515610e0d57610e0d838383602060405190810160405280600081525061158f565b6000611099610d46565b82106110a457600080fd5b60098054839081106110b257fe5b90600052602060002001549050919050565b6000816110d08161147f565b15156110f15760405160e560020a62461bcd0281526004016101d790612874565b505060009081526010602052604090205490565b600e5490565b600d54600160a060020a0316331461112257600080fd5b600d805474ff000000000000000000000000000000000000000019169055565b600c55565b600081815260016020526040812054600160a060020a0316801515610e5a57600080fd5b61117361208a565b8261117d8161147f565b151561119e5760405160e560020a62461bcd0281526004016101d790612874565b600084815260106020908152604091829020548251606081018452602181527f4552524f523a205468697320656e74727920646f6573206e6f74206578697374928101929092527f2e00000000000000000000000000000000000000000000000000000000000000928201929092529084106112305760405160e560020a62461bcd0281526004016101d7919061280a565b50600084815260106020526040902080548490811061124b57fe5b6000918252602091829020604080516080810182526004939093029091018054600160a060020a03168352600180820154848601526002808301805485516101009482161594909402600019011691909104601f810187900487028301870185528083529495929493860193919290919083018282801561130d5780601f106112e25761010080835404028352916020019161130d565b820191906000526020600020905b8154815290600101906020018083116112f057829003601f168201915b505050918352505060038201805460408051602060026001851615610100026000190190941693909304601f81018490048402820184019092528181529382019392918301828280156113a15780601f10611376576101008083540402835291602001916113a1565b820191906000526020600020905b81548152906001019060200180831161138457829003601f168201915b50505050508152505091505092915050565b600c5490565b6000600160a060020a03821615156113d057600080fd5b50600160a060020a031660009081526003602052604090205490565b600d54600160a060020a0316331461140357600080fd5b600d805474ff0000000000000000000000000000000000000000191660a060020a179055565b600080606080846114398161147f565b151561145a5760405160e560020a62461bcd0281526004016101d790612874565b61146f866001611469896110c4565b03610a7a565b9450945094509450509193509193565b60008082118015610e5a575050600090815260016020526040902054600160a060020a0316151590565b60068054604080516020601f600260001961010060018816150201909516949094049384018190048102820181019092528281526060939092909183018282801561094f5780601f106109245761010080835404028352916020019161094f565b600160a060020a03821633141561152057600080fd5b336000818152600460209081526040808320600160a060020a038716808552925291829020805460ff191685151517905590519091907f17307eab39ab6107e8899845ad3d59bd9653f200f220920489ca2b5937696c31906115839085906127ee565b60405180910390a35050565b600d5460a060020a900460ff1615156115c4576115ad848484610d70565b6115b984848484611d31565b15156115c457600080fd5b50505050565b60606115d582611e3d565b15156115e057600080fd5b6000828152600b602090815260409182902080548351601f6002600019610100600186161502019093169290920491820184900484028101840190945280845290918301828280156116735780601f1061164857610100808354040283529160200191611673565b820191906000526020600020905b81548152906001019060200180831161165657829003601f168201915b50505050509050919050565b60608060608361168e8161147f565b15156116af5760405160e560020a62461bcd0281526004016101d790612874565b6000858152600f60209081526040918290208054835160026001808416156101000260001901909316819004601f8101869004860283018601909652858252929491850193928501929091859183018282801561174d5780601f106117225761010080835404028352916020019161174d565b820191906000526020600020905b81548152906001019060200180831161173057829003601f168201915b5050855460408051602060026001851615610100026000190190941693909304601f8101849004840282018401909252818152959850879450925084019050828280156117db5780601f106117b0576101008083540402835291602001916117db565b820191906000526020600020905b8154815290600101906020018083116117be57829003601f168201915b5050845460408051602060026001851615610100026000190190941693909304601f8101849004840282018401909252818152959750869450925084019050828280156118695780601f1061183e57610100808354040283529160200191611869565b820191906000526020600020905b81548152906001019060200180831161184c57829003601f168201915b50505050509050935093509350509193909250565b6118866120bc565b816118908161147f565b15156118b15760405160e560020a62461bcd0281526004016101d790612874565b6000838152600f60209081526040918290208251815460026001821615610100026000190190911604601f8101849004909302810160809081019094526060810183815290939192849284919084018282801561194f5780601f106119245761010080835404028352916020019161194f565b820191906000526020600020905b81548152906001019060200180831161193257829003601f168201915b50505050508152602001600182018054600181600116156101000203166002900480601f0160208091040260200160405190810160405280929190818152602001828054600181600116156101000203166002900480156119f15780601f106119c6576101008083540402835291602001916119f1565b820191906000526020600020905b8154815290600101906020018083116119d457829003601f168201915b5050509183525050600282810180546040805160206001841615610100026000190190931694909404601f81018390048302850183019091528084529381019390830182828015611a835780601f10611a5857610100808354040283529160200191611a83565b820191906000526020600020905b815481529060010190602001808311611a6657829003601f168201915b505050505081525050915050919050565b600160a060020a03918216600090815260046020908152604080832093909416825291909152205460ff1690565b600080611ace83611147565b905080600160a060020a031684600160a060020a03161480611b09575083600160a060020a0316611afe8461095a565b600160a060020a0316145b80611b195750611b198185611a94565b949350505050565b81600160a060020a0316611b3482611147565b600160a060020a031614611b4757600080fd5b600081815260026020526040902054600160a060020a031615611b8e576000818152600260205260409020805473ffffffffffffffffffffffffffffffffffffffff191690555b5050565b6000806000611ba18585611e5a565b600084815260086020908152604080832054600160a060020a0389168452600790925290912054909350611bdc90600163ffffffff611ef016565b600160a060020a038616600090815260076020526040902080549193509083908110611c0457fe5b90600052602060002001549050806007600087600160a060020a0316600160a060020a0316815260200190815260200160002084815481101515611c4457fe5b6000918252602080832090910192909255600160a060020a0387168152600790915260409020805490611c7b9060001983016120de565b50600093845260086020526040808520859055908452909220555050565b6000611ca58383611f07565b50600160a060020a039091166000908152600760209081526040808320805460018101825590845282842081018590559383526008909152902055565b611cec8282611f97565b600980546000838152600a60205260408120829055600182018355919091527f6e1540171b6c0c960b71a7020d9f60077f6af931a8bbf590da0223dacf75c7af015550565b600080611d4685600160a060020a0316611ff2565b1515611d555760019150610877565b6040517f150b7a02000000000000000000000000000000000000000000000000000000008152600160a060020a0386169063150b7a0290611da09033908a908990899060040161274e565b602060405180830381600087803b158015611dba57600080fd5b505af1158015611dce573d6000803e3d6000fd5b505050506040513d601f19601f82011682018060405250611df29190810190612344565b7bffffffffffffffffffffffffffffffffffffffffffffffffffffffff19167f150b7a0200000000000000000000000000000000000000000000000000000000149695505050505050565b600090815260016020526040902054600160a060020a0316151590565b81600160a060020a0316611e6d82611147565b600160a060020a031614611e8057600080fd5b600160a060020a038216600090815260036020526040902054611eaa90600163ffffffff611ef016565b600160a060020a03909216600090815260036020908152604080832094909455918152600190915220805473ffffffffffffffffffffffffffffffffffffffff19169055565b60008083831115611f0057600080fd5b5050900390565b600081815260016020526040902054600160a060020a031615611f2957600080fd5b6000818152600160208181526040808420805473ffffffffffffffffffffffffffffffffffffffff1916600160a060020a0388169081179091558452600390915290912054611f7791611ffa565b600160a060020a0390921660009081526003602052604090209190915550565b600160a060020a0382161515611fac57600080fd5b611fb68282611c99565b6040518190600160a060020a038416906000907fddf252ad1be2c89b69c2b068fc378daa952ba7f163c4a11628f55a4df523b3ef908290a45050565b6000903b1190565b600082820183811015610a7357600080fd5b828054600181600116156101000203166002900490600052602060002090601f016020900481019282601f1061204d57805160ff191683800117855561207a565b8280016001018555821561207a579182015b8281111561207a57825182559160200191906001019061205f565b506120869291506120fe565b5090565b6080604051908101604052806000600160a060020a031681526020016000815260200160608152602001606081525090565b6060604051908101604052806060815260200160608152602001606081525090565b815481835581811115610e0d57600083815260209020610e0d9181019083015b61095791905b808211156120865760008155600101612104565b6000610a738235612927565b6000610a738235612933565b6000610a738235612938565b6000610a738251612938565b6000601f8201831361215957600080fd5b813561216c612167826128fb565b6128d4565b9150808252602083016020830185838301111561218857600080fd5b61219383828461295a565b50505092915050565b6000610a738235610957565b6000602082840312156121ba57600080fd5b6000611b198484612118565b600080604083850312156121d957600080fd5b60006121e58585612118565b92505060206121f685828601612118565b9150509250929050565b60008060006060848603121561221557600080fd5b60006122218686612118565b935050602061223286828701612118565b92505060406122438682870161219c565b9150509250925092565b6000806000806080858703121561226357600080fd5b600061226f8787612118565b945050602061228087828801612118565b93505060406122918782880161219c565b925050606085013567ffffffffffffffff8111156122ae57600080fd5b6122ba87828801612148565b91505092959194509250565b600080604083850312156122d957600080fd5b60006122e58585612118565b92505060206121f685828601612124565b6000806040838503121561230957600080fd5b60006123158585612118565b92505060206121f68582860161219c565b60006020828403121561233857600080fd5b6000611b198484612130565b60006020828403121561235657600080fd5b6000611b19848461213c565b60008060006060848603121561237757600080fd5b833567ffffffffffffffff81111561238e57600080fd5b61239a86828701612148565b935050602084013567ffffffffffffffff8111156123b757600080fd5b6123c386828701612148565b925050604084013567ffffffffffffffff8111156123e057600080fd5b61224386828701612148565b6000602082840312156123fe57600080fd5b6000611b19848461219c565b6000806040838503121561241d57600080fd5b6000612315858561219c565b6000806000806080858703121561243f57600080fd5b600061244b878761219c565b945050602061245c8782880161219c565b935050604085013567ffffffffffffffff81111561247957600080fd5b61229187828801612148565b61248e81612927565b82525050565b61248e81612933565b61248e81612938565b60006124b182612923565b8084526124c5816020860160208601612966565b6124ce81612992565b9093016020019392505050565b603f81527f4552524f523a204d696c616765206d75737420626520657175616c206f72206760208201527f726561746572207468616e207468652070726576696f757320656e7472792e00604082015260600190565b602a81527f436f6e74726163742069732073746f707065642e204e6f207061796d656e747360208201527f20706f737369626c652e00000000000000000000000000000000000000000000604082015260600190565b601c81527f4552524f523a20546f6b656e20646f6573206e6f742065786973742e00000000602082015260400190565b603f81527f66616c6c6261636b2066756e6374696f6e206f6e6c792061636365707473206660208201527f756e64696e6720776974686f757420616e792064617461207061796c6f616400604082015260600190565b604681527f416363657373205269676874204572726f723a204f6e6c792063726561746f7260208201527f20697320616c6c6f77656420746f206d696e74206e65772076656869636c652060408201527f746f6b656e2e0000000000000000000000000000000000000000000000000000606082015260800190565b8051600090608084019061269d8582612485565b5060208301516126b06020860182612737565b50604083015184820360408601526126c882826124a6565b915050606083015184820360608601526126e282826124a6565b95945050505050565b805160608084526000919084019061270382826124a6565b9150506020830151848203602086015261271d82826124a6565b915050604083015184820360408601526126e282826124a6565b61248e81610957565b60208101610e5a8284612485565b6080810161275c8287612485565b6127696020830186612485565b6127766040830185612737565b818103606083015261278881846124a6565b9695505050505050565b604081016127a08285612485565b610a736020830184612737565b608081016127bb8287612485565b6127c86020830186612737565b81810360408301526127da81856124a6565b9050818103606083015261278881846124a6565b60208101610e5a8284612494565b60208101610e5a828461249d565b60208082528101610a7381846124a6565b6060808252810161282c81866124a6565b9050818103602083015261284081856124a6565b905081810360408301526126e281846124a6565b60208082528101610e5a816124db565b60208082528101610e5a81612531565b60208082528101610e5a81612587565b60208082528101610e5a816125b7565b60208082528101610e5a8161260d565b60208082528101610a738184612689565b60208082528101610a7381846126eb565b60208101610e5a8284612737565b60405181810167ffffffffffffffff811182821017156128f357600080fd5b604052919050565b600067ffffffffffffffff82111561291257600080fd5b506020601f91909101601f19160190565b5190565b600160a060020a031690565b151590565b7bffffffffffffffffffffffffffffffffffffffffffffffffffffffff191690565b82818337506000910152565b60005b83811015612981578181015183820152602001612969565b838111156115c45750506000910152565b601f01601f1916905600a265627a7a72305820784ceaf76d8bd0c5240c04eb7994385d8ac7e9281de921a3d4dbd97f0eadab8a6c6578706572696d656e74616cf50037",
  "source": "pragma solidity ^0.4.24;\npragma experimental ABIEncoderV2; // currently gives a warning, but required when passing structs to web3@1.0.0\n\n// import \"./ERC721.sol\";\n// import \"./SupportsInterfaceWithLookup.sol\";\n\nimport \"./ERC721Token.sol\"; // use a local copy for easier work with Remix\n// import \"openzeppelin-solidity/contracts/token/ERC721/ERC721Token.sol\";\n\n/**\n * @title ERC721Vehicle for Vehicle History Log\n * This implementation implements a ERC721 Vehicle Token to be used\n * as a basis for a Vehicle Service History Log\n * https://github.com/SvenMeyer/VehicleHistoryLog/blob/master/README.md\n * @dev see https://github.com/ethereum/EIPs/blob/master/EIPS/eip-721.md\n */\n\ncontract ERC721Vehicle is ERC721Token {\n\n\t// simple data field and fuctions for basic test\n\tuint storedData;\n\tfunction set(uint x) public {storedData = x;}\n\tfunction get() public view returns (uint) {return storedData;}\n\n\t// creator of this contract = vehicle manufaturer\n\t// its ok that it is public who the creator of this contract is\n\taddress public creator;\n\n\tmodifier isAdmin() {\n\t\trequire(msg.sender == creator);\n\t\t_;\n\t}\n\n\t// Circuit Breakers (Pause transfer functionality)\n\tbool private stopped = false;\n\tfunction setContractActive() isAdmin public {\n        stopped = false;\n\t}\n\tfunction setContractInactive() isAdmin public {\n        stopped = true;\n\t}\n\tmodifier stopInEmergency { if (!stopped) _; }\n\n\t// vehicle token serial numbers (=tokenId) will get numbered starting from 1 (we reserve 0 for not existing/allowed)\n\tuint internal serial = 0; // = tokenId\n \n\tstring constant ERROR_ENTRY_DOES_NOT_EXIST = \"ERROR: This entry does not exist.\";\n\n\t/* TYPE DEFINITIONS **************************************** */\n\n\t/**\n\t * @dev Struct to store data about vehivle\n\t * @param model : model id of vehicle [max 32 char]\n\t * @param vin : Vehicle Identification Number - ISO Standard 3779 [17 char]\n\t * @param ein : Engine Identification Number [max 32 char]\n\t */\n\tstruct VehicleData {\n\t\tstring model;\n\t\tstring vin;\n\t\tstring ein;\n\t\t// string  imageURI;\n\t\t// string  documentURI;\n\t}\n\n\t// for tokenId get VehicleData\n\tmapping (uint256 => VehicleData) internal vehicleDataStore;\n\t\n\tstruct LogEntry {\n\t\taddress auditor;\n\t\tuint milage;\n\t\tstring description;\n\t\tstring documentURI;\n\t}\n\n\t// it is not possible to map to a (dynamic) array\n\t// the array needs to be wrapped in a struct\n\t// https://ethereum.stackexchange.com/questions/12097/creating-dynamic-arrays\n\tstruct HistoryLog {\n\t\tLogEntry[] structArray;\n\t}\n\n\t// Mapping from Vehicle (token id) to HistoryLog\n\tmapping (uint => HistoryLog) historyLogs;\n\n\t/* EVENTS   **************************************** */\n\tevent EventNewVehicleToken(uint indexed tokenId);\n\tevent EventNewLogEntry(uint indexed tokenId);\n\tevent EventForSale(uint indexed tokenId);\n\tevent EventSold(uint indexed tokenId);\n//  event EventShipped(uint indexed tokenId);\n\tevent EventReceived(uint indexed tokenId);\n\tevent EventVehicleBurnt(uint indexed tokenId);\n\tevent EventDepositReceived(address sender, uint value);\n\n\t/* FUNCTIONS **************************************** */\n\n\t/**\n\t * @dev Constructor function\n\t */\n\t// constructor(string _name, string _symbol) ERC721Token(_name, _symbol) public {\n\t// call constructor of super class/contract with parameter\n\t// TODO: accept parameter from deployer\t\n\tconstructor () ERC721Token(\"Porsche\",\"POR\") public {\n\t\tcreator = msg.sender;\n\t}\n\n\tfunction logDepositReceived(address sender, uint value) internal {\n\t\temit EventDepositReceived(sender, value);\n\t}\n\t   \n\tfunction isValidToken(uint _tokenId) public view returns (bool _valid) {\n\t\treturn (_tokenId > 0) && (tokenOwner[_tokenId] != address(0));\n\t}\n\n\tmodifier onlyValidToken(uint _tokenId) {\n\t\trequire(isValidToken(_tokenId), \"ERROR: Token does not exist.\");\n\t\t_;\n\t}\n\t\n\t// TODO: use pragma experimental ABIEncoderV2\n\t// https://ethereum.stackexchange.com/questions/39976/working-with-structs-in-solidity-and-web3js\n\t\n\tfunction appendLogEntry(uint _tokenId, uint _milage, string _description, string _documentURI) public \n\t\tonlyValidToken(_tokenId)\n\t\treturns (uint length)\n\t{\n\t\trequire(msg.sender == ownerOf(_tokenId) ||\n\t\t\t\tmsg.sender == creator ||\n\t\t\t\tmsg.sender == getApproved(_tokenId));\n\t\t// if there are already entries then the milage must be equal or greater than the previous entry\n\t\tif (historyLogs[_tokenId].structArray.length > 0)\n\t\t\trequire(_milage >= historyLogs[_tokenId].structArray[historyLogs[_tokenId].structArray.length - 1].milage,\n\t\t\t\t\"ERROR: Milage must be equal or greater than the previous entry.\");\n\t\temit EventNewLogEntry(_tokenId);\n\t\treturn historyLogs[_tokenId].structArray.push(LogEntry({auditor: msg.sender, milage:_milage, description: _description, documentURI: _documentURI}));\n\t}\n\t\n\tfunction getLogEntryCount(uint _tokenId) public view\n\t\tonlyValidToken(_tokenId)\n\t\treturns (uint length)\n\t{\n\t\treturn historyLogs[_tokenId].structArray.length;\n\t}\n\n\tfunction getLogEntryAtIndex(uint _tokenId, uint _index) public view \n\t\tonlyValidToken(_tokenId)\n\t\treturns(address _auditor, uint _milage, string _description, string _documentURI)\n\t{\n\t\trequire(_index < historyLogs[_tokenId].structArray.length, ERROR_ENTRY_DOES_NOT_EXIST);\n\t\treturn (\n\t\t\thistoryLogs[_tokenId].structArray[_index].auditor,\n\t\t\thistoryLogs[_tokenId].structArray[_index].milage, \n\t\t\thistoryLogs[_tokenId].structArray[_index].description,\n\t\t\thistoryLogs[_tokenId].structArray[_index].documentURI);\n\t}\n\t\n\tfunction getLogEntryLast(uint _tokenId) public view\n\t\tonlyValidToken(_tokenId)\n\t\treturns(address _auditor, uint _milage, string _description, string _documentURI)\n\t{\n\t\t// require(getLogEntryCount(_tokenId) > 0, \"ERROR: tokenId has to be larger than 0\");\n\t\treturn getLogEntryAtIndex(_tokenId, getLogEntryCount(_tokenId) - 1 );\n\t}\n\t\n\n\t/**\n\t* @dev public function to mint a new token for a new car\n\t* @return uint serial number of new vehicle token\n\t* @param  _model string : name of the vehicle model (max 31 low-level bytes of the UTF-8 representation)\n\t* @param  _vin string : vehicle identification number (max 31 low-level bytes of the UTF-8 representation)\n\t* @param  _ein string : engine identification number (max 31 low-level bytes of the UTF-8 representation)\n\t* @return uint serial : new tokenId\n\t*/\n\tfunction mintNewVehicleToken(string _model, string _vin, string _ein) public returns (uint) {\n\t\tstring memory ERROR_MESSAGE=\"max 31 low-level bytes of the UTF-8 representation exceeded\";\n\t\trequire(bytes(_model).length <= 31, ERROR_MESSAGE);\n\t\trequire(bytes( _vin ).length <= 31, ERROR_MESSAGE);\n\t\trequire(bytes( _ein ).length <= 31, ERROR_MESSAGE);\n\t\trequire(msg.sender == creator, \"Access Right Error: Only creator is allowed to mint new vehicle token.\");\n\t\tserial += 1;\n\t\t_mint(creator, serial);\n\t\tvehicleDataStore[serial] = VehicleData({model: _model, vin:_vin, ein:_ein});\n\t\temit EventNewVehicleToken(serial);\n\t\treturn serial;\n\t}\n\n\t/**\n\t* @dev get serial number of last produced vehicle = minted token\n\t* @return uint serial number of new vehicle token\n\t*/\n\tfunction getLastSerial() public view returns (uint) {\n\t\treturn serial;\n\t}\n\n\tfunction getVehicleData(uint _tokenId) public view \n\t\tonlyValidToken(_tokenId)\n\t\treturns(string model, string vin, string ein)\n\t{\n\t\treturn(vehicleDataStore[_tokenId].model, vehicleDataStore[_tokenId].vin, vehicleDataStore[_tokenId].ein);\n\t}\n\n\t/* EXPERIMENTAL - needs ABIencoderV2 ********** */\n\n\tfunction getVehicleData_Struct(uint _tokenId) public view \n\t\tonlyValidToken(_tokenId)\n\t\treturns(VehicleData)\n\t{\n\t\treturn vehicleDataStore[_tokenId];\n\t}\n\n\tfunction getLogAtIndex_Struct(uint _tokenId, uint _index) public view \n\t\tonlyValidToken(_tokenId)\n\t\treturns(LogEntry)\n\t{\n\t\t// require(isValidToken(_tokenId), ERROR_TOKEN_DOES_NOT_EXIST);\n\t\trequire(_index < historyLogs[_tokenId].structArray.length, ERROR_ENTRY_DOES_NOT_EXIST);\n\t\treturn (historyLogs[_tokenId].structArray[_index]);\n\t}\n\t\n\tfunction getLogLast_Struct(uint _tokenId) public view\n\t\tonlyValidToken(_tokenId)\n\t\treturns(LogEntry)\n\t{\n\t\t// require(getLogEntryCount(_tokenId) > 0, \"ERROR: tokenId has to be larger than 0\");\n\t\treturn getLogAtIndex_Struct(_tokenId, getLogEntryCount(_tokenId) - 1 );\n\t}\n\n\t/*\tTRANSFER FUNCTIONS\n\t\toverwrite function in ERC721BasicToken.sol to implement Circuit Breaker 'stopInEmergency' */\n\t\n\t/**\n\t* @dev Transfers the ownership of a given token ID to another address\n\t* Usage of this method is discouraged, use `safeTransferFrom` whenever possible\n\t* Requires the msg sender to be the owner, approved, or operator\n\t* @param _from current owner of the token\n\t* @param _to address to receive the ownership of the given token ID\n\t* @param _tokenId uint256 ID of the token to be transferred\n\t*/\n\tfunction transferFrom(\n\t\taddress _from,\n\t\taddress _to,\n\t\tuint256 _tokenId\n\t)\n\t\tstopInEmergency public\n\t{\n\t\trequire(isApprovedOrOwner(msg.sender, _tokenId));\n\t\trequire(_to != address(0));\n\n\t\tclearApproval(_from, _tokenId);\n\t\tremoveTokenFrom(_from, _tokenId);\n\t\taddTokenTo(_to, _tokenId);\n\n\t\temit Transfer(_from, _to, _tokenId);\n\t}\n\n\t/**\n\t* @dev Safely transfers the ownership of a given token ID to another address\n\t* If the target address is a contract, it must implement `onERC721Received`,\n\t* which is called upon a safe transfer, and return the magic value\n\t* `bytes4(keccak256(\"onERC721Received(address,address,uint256,bytes)\"))`; otherwise,\n\t* the transfer is reverted.\n\t*\n\t* Requires the msg sender to be the owner, approved, or operator\n\t* @param _from current owner of the token\n\t* @param _to address to receive the ownership of the given token ID\n\t* @param _tokenId uint256 ID of the token to be transferred\n\t*/\n\tfunction safeTransferFrom(\n\t\taddress _from,\n\t\taddress _to,\n\t\tuint256 _tokenId\n\t)\n\t\tstopInEmergency public\n\t{\n\t\t// solium-disable-next-line arg-overflow\n\t\tsafeTransferFrom(_from, _to, _tokenId, \"\");\n\t}\n\n\t/**\n\t* @dev Safely transfers the ownership of a given token ID to another address\n\t* If the target address is a contract, it must implement `onERC721Received`,\n\t* which is called upon a safe transfer, and return the magic value\n\t* `bytes4(keccak256(\"onERC721Received(address,address,uint256,bytes)\"))`; otherwise,\n\t* the transfer is reverted.\n\t* Requires the msg sender to be the owner, approved, or operator\n\t* @param _from current owner of the token\n\t* @param _to address to receive the ownership of the given token ID\n\t* @param _tokenId uint256 ID of the token to be transferred\n\t* @param _data bytes data to send along with a safe transfer check\n\t*/\n\tfunction safeTransferFrom(\n\t\taddress _from,\n\t\taddress _to,\n\t\tuint256 _tokenId,\n\t\tbytes _data\n\t)\n\t\tstopInEmergency public\n\t{\n\t\ttransferFrom(_from, _to, _tokenId);\n\t\t// solium-disable-next-line arg-overflow\n\t\trequire(checkAndCallSafeTransfer(_from, _to, _tokenId, _data));\n\t}\n\n\n\t// fallback function : if ETH is send without data,\n\t// then it is a plain payment, we keep it and emit an event\n\tfunction() public payable {\n\t\tif(stopped) {\n\t\t\trevert('Contract is stopped. No payments possible.');\n\t\t}\n\t\trequire(msg.data.length == 0, 'fallback function only accepts funding without any data payload');\n\t\tlogDepositReceived(msg.sender, msg.value);\n\t}\n\n\t// creator of contract is allowed to destroy the contract and receive all funds\n\tfunction kill() public {\n\t\tif(msg.sender == creator) {\n\t\t\tselfdestruct(creator);\n\t\t}\n\t}\n}",
  "sourcePath": "/home/sum/DEV/VehicleHistoryLog-next/contracts/ERC721Vehicle.sol",
  "compiler": {
    "name": "solc",
    "version": "0.4.24+commit.e67f0147.Emscripten.clang"
  },
  "schemaVersion": "2.0.1",
  "updatedAt": "2018-08-28T11:34:14.884Z"
}